{
  "_format": "hh-sol-artifact-1",
  "contractName": "FoundationCommitteeV1",
  "sourceName": "contracts/SessionKeys.sol",
  "abi": [
    {
      "inputs": [],
      "stateMutability": "nonpayable",
      "type": "constructor"
    },
    {
      "anonymous": false,
      "inputs": [
        {
          "indexed": true,
          "internalType": "address",
          "name": "proposer",
          "type": "address"
        },
        {
          "indexed": false,
          "internalType": "string",
          "name": "proposalDetails",
          "type": "string"
        }
      ],
      "name": "ChangeProposed",
      "type": "event"
    },
    {
      "anonymous": false,
      "inputs": [
        {
          "indexed": false,
          "internalType": "enum FoundationCommitteeV1.CommitteeType",
          "name": "committeeType",
          "type": "uint8"
        },
        {
          "indexed": true,
          "internalType": "address",
          "name": "oldMember",
          "type": "address"
        },
        {
          "indexed": true,
          "internalType": "address",
          "name": "newMember",
          "type": "address"
        }
      ],
      "name": "CommitteeMemberRotated",
      "type": "event"
    },
    {
      "anonymous": false,
      "inputs": [
        {
          "indexed": true,
          "internalType": "address",
          "name": "previousOwner",
          "type": "address"
        },
        {
          "indexed": true,
          "internalType": "address",
          "name": "newOwner",
          "type": "address"
        }
      ],
      "name": "OwnershipTransferred",
      "type": "event"
    },
    {
      "anonymous": false,
      "inputs": [
        {
          "indexed": false,
          "internalType": "address",
          "name": "account",
          "type": "address"
        }
      ],
      "name": "Paused",
      "type": "event"
    },
    {
      "anonymous": false,
      "inputs": [
        {
          "indexed": true,
          "internalType": "address",
          "name": "sessionKey",
          "type": "address"
        }
      ],
      "name": "SessionEnded",
      "type": "event"
    },
    {
      "anonymous": false,
      "inputs": [
        {
          "indexed": true,
          "internalType": "address",
          "name": "sessionKey",
          "type": "address"
        }
      ],
      "name": "SessionKeyAdded",
      "type": "event"
    },
    {
      "anonymous": false,
      "inputs": [
        {
          "indexed": false,
          "internalType": "address",
          "name": "account",
          "type": "address"
        }
      ],
      "name": "Unpaused",
      "type": "event"
    },
    {
      "inputs": [
        {
          "internalType": "address",
          "name": "_memberAddress",
          "type": "address"
        }
      ],
      "name": "addResearchCommitteeMember",
      "outputs": [],
      "stateMutability": "nonpayable",
      "type": "function"
    },
    {
      "inputs": [
        {
          "internalType": "address",
          "name": "_sessionKey",
          "type": "address"
        },
        {
          "internalType": "enum FoundationCommitteeV1.CommitteeType",
          "name": "_committeeType",
          "type": "uint8"
        }
      ],
      "name": "addSessionKey",
      "outputs": [],
      "stateMutability": "nonpayable",
      "type": "function"
    },
    {
      "inputs": [
        {
          "internalType": "address",
          "name": "_memberAddress",
          "type": "address"
        }
      ],
      "name": "addTechnicalCommitteeMember",
      "outputs": [],
      "stateMutability": "nonpayable",
      "type": "function"
    },
    {
      "inputs": [
        {
          "internalType": "uint256",
          "name": "_approvalIndex",
          "type": "uint256"
        }
      ],
      "name": "approveMultiSignAggre",
      "outputs": [],
      "stateMutability": "nonpayable",
      "type": "function"
    },
    {
      "inputs": [
        {
          "internalType": "enum FoundationCommitteeV1.CommitteeType",
          "name": "",
          "type": "uint8"
        },
        {
          "internalType": "uint256",
          "name": "",
          "type": "uint256"
        }
      ],
      "name": "committees",
      "outputs": [
        {
          "internalType": "uint256",
          "name": "rotationEnd",
          "type": "uint256"
        }
      ],
      "stateMutability": "view",
      "type": "function"
    },
    {
      "inputs": [
        {
          "internalType": "address",
          "name": "_sessionKey",
          "type": "address"
        }
      ],
      "name": "endSession",
      "outputs": [],
      "stateMutability": "nonpayable",
      "type": "function"
    },
    {
      "inputs": [],
      "name": "getResearchCommitteeMembersCount",
      "outputs": [
        {
          "internalType": "uint256",
          "name": "",
          "type": "uint256"
        }
      ],
      "stateMutability": "view",
      "type": "function"
    },
    {
      "inputs": [],
      "name": "getTechnicalCommitteeMembersCount",
      "outputs": [
        {
          "internalType": "uint256",
          "name": "",
          "type": "uint256"
        }
      ],
      "stateMutability": "view",
      "type": "function"
    },
    {
      "inputs": [
        {
          "internalType": "address",
          "name": "",
          "type": "address"
        }
      ],
      "name": "memberCommitteeType",
      "outputs": [
        {
          "internalType": "enum FoundationCommitteeV1.CommitteeType",
          "name": "",
          "type": "uint8"
        }
      ],
      "stateMutability": "view",
      "type": "function"
    },
    {
      "inputs": [
        {
          "internalType": "address",
          "name": "",
          "type": "address"
        },
        {
          "internalType": "uint256",
          "name": "",
          "type": "uint256"
        }
      ],
      "name": "multiSignAggreApprovals",
      "outputs": [
        {
          "internalType": "bool",
          "name": "",
          "type": "bool"
        }
      ],
      "stateMutability": "view",
      "type": "function"
    },
    {
      "inputs": [],
      "name": "owner",
      "outputs": [
        {
          "internalType": "address",
          "name": "",
          "type": "address"
        }
      ],
      "stateMutability": "view",
      "type": "function"
    },
    {
      "inputs": [],
      "name": "paused",
      "outputs": [
        {
          "internalType": "bool",
          "name": "",
          "type": "bool"
        }
      ],
      "stateMutability": "view",
      "type": "function"
    },
    {
      "inputs": [
        {
          "internalType": "string",
          "name": "_proposalDetails",
          "type": "string"
        }
      ],
      "name": "proposeChange",
      "outputs": [],
      "stateMutability": "nonpayable",
      "type": "function"
    },
    {
      "inputs": [],
      "name": "renounceOwnership",
      "outputs": [],
      "stateMutability": "nonpayable",
      "type": "function"
    },
    {
      "inputs": [],
      "name": "researchRotationPeriod",
      "outputs": [
        {
          "internalType": "uint256",
          "name": "",
          "type": "uint256"
        }
      ],
      "stateMutability": "view",
      "type": "function"
    },
    {
      "inputs": [
        {
          "internalType": "enum FoundationCommitteeV1.CommitteeType",
          "name": "_committeeType",
          "type": "uint8"
        },
        {
          "internalType": "address",
          "name": "_newMember",
          "type": "address"
        }
      ],
      "name": "rotateCommittee",
      "outputs": [],
      "stateMutability": "nonpayable",
      "type": "function"
    },
    {
      "inputs": [],
      "name": "sessionCount",
      "outputs": [
        {
          "internalType": "uint256",
          "name": "",
          "type": "uint256"
        }
      ],
      "stateMutability": "view",
      "type": "function"
    },
    {
      "inputs": [],
      "name": "sessionDuration",
      "outputs": [
        {
          "internalType": "uint256",
          "name": "",
          "type": "uint256"
        }
      ],
      "stateMutability": "view",
      "type": "function"
    },
    {
      "inputs": [
        {
          "internalType": "address",
          "name": "",
          "type": "address"
        }
      ],
      "name": "sessionExpiry",
      "outputs": [
        {
          "internalType": "uint256",
          "name": "",
          "type": "uint256"
        }
      ],
      "stateMutability": "view",
      "type": "function"
    },
    {
      "inputs": [
        {
          "internalType": "address",
          "name": "",
          "type": "address"
        }
      ],
      "name": "sessionKeys",
      "outputs": [
        {
          "internalType": "bool",
          "name": "",
          "type": "bool"
        }
      ],
      "stateMutability": "view",
      "type": "function"
    },
    {
      "inputs": [
        {
          "internalType": "uint256",
          "name": "_count",
          "type": "uint256"
        }
      ],
      "name": "setCount",
      "outputs": [],
      "stateMutability": "nonpayable",
      "type": "function"
    },
    {
      "inputs": [
        {
          "internalType": "uint256",
          "name": "_duration",
          "type": "uint256"
        }
      ],
      "name": "setDuration",
      "outputs": [],
      "stateMutability": "nonpayable",
      "type": "function"
    },
    {
      "inputs": [
        {
          "internalType": "uint256",
          "name": "_rotationPeriod",
          "type": "uint256"
        }
      ],
      "name": "setResearchRotationPeriod",
      "outputs": [],
      "stateMutability": "nonpayable",
      "type": "function"
    },
    {
      "inputs": [
        {
          "internalType": "uint256",
          "name": "_rotationPeriod",
          "type": "uint256"
        }
      ],
      "name": "setTechnicalRotationPeriod",
      "outputs": [],
      "stateMutability": "nonpayable",
      "type": "function"
    },
    {
      "inputs": [],
      "name": "technicalRotationPeriod",
      "outputs": [
        {
          "internalType": "uint256",
          "name": "",
          "type": "uint256"
        }
      ],
      "stateMutability": "view",
      "type": "function"
    },
    {
      "inputs": [
        {
          "internalType": "address",
          "name": "newOwner",
          "type": "address"
        }
      ],
      "name": "transferOwnership",
      "outputs": [],
      "stateMutability": "nonpayable",
      "type": "function"
    }
  ],
  "bytecode": "0x608060405262093a806001556005600255601960035560196004553480156200002757600080fd5b50620000486200003c6200012b60201b60201c565b6200013360201b60201c565b60008060146101000a81548160ff0219169083151502179055506001600660003373ffffffffffffffffffffffffffffffffffffffff1673ffffffffffffffffffffffffffffffffffffffff16815260200190815260200160002060006101000a81548160ff0219169083151502179055506000600860003373ffffffffffffffffffffffffffffffffffffffff1673ffffffffffffffffffffffffffffffffffffffff16815260200190815260200160002060006101000a81548160ff0219169083600181111562000120576200011f620001f7565b5b021790555062000226565b600033905090565b60008060009054906101000a900473ffffffffffffffffffffffffffffffffffffffff169050816000806101000a81548173ffffffffffffffffffffffffffffffffffffffff021916908373ffffffffffffffffffffffffffffffffffffffff1602179055508173ffffffffffffffffffffffffffffffffffffffff168173ffffffffffffffffffffffffffffffffffffffff167f8be0079c531659141344cd1fd0a4f28419497f9722a3daafe3b4186f6b6457e060405160405180910390a35050565b7f4e487b7100000000000000000000000000000000000000000000000000000000600052602160045260246000fd5b6128b780620002366000396000f3fe608060405234801561001057600080fd5b506004361061018e5760003560e01c8063a4234fcf116100de578063d9663efc11610097578063edca4b5711610071578063edca4b5714610449578063f2fde38b14610465578063f5ced3f614610481578063f6be71d1146104b15761018e565b8063d9663efc146103df578063db02d808146103fb578063ece35d011461042b5761018e565b8063a4234fcf1461030f578063ade661eb1461032b578063af6abdf21461035b578063b724527614610377578063b7b8d60414610393578063d14e62b8146103c35761018e565b8063673762481161014b578063795962b311610125578063795962b31461029b5780637ce02794146102b75780638da5cb5b146102d35780639336dcfe146102f15761018e565b80636737624814610255578063715018a61461027357806373cd83361461027d5761018e565b8063060c162914610193578063070c9e93146101af57806308fa8bb5146101df578063211626b4146101fb578063365d46bb146102195780635c975abb14610237575b600080fd5b6101ad60048036038101906101a89190611cf3565b6104cd565b005b6101c960048036038101906101c49190611d45565b610647565b6040516101d69190611d94565b60405180910390f35b6101f960048036038101906101f49190611ef5565b61067e565b005b6102036108da565b6040516102109190611d94565b60405180910390f35b61022161091c565b60405161022e9190611d94565b60405180910390f35b61023f61095e565b60405161024c9190611f59565b60405180910390f35b61025d610974565b60405161026a9190611d94565b60405180910390f35b61027b61097a565b005b61028561098e565b6040516102929190611d94565b60405180910390f35b6102b560048036038101906102b09190611fd2565b610994565b005b6102d160048036038101906102cc9190611fd2565b610cbe565b005b6102db610e9e565b6040516102e8919061200e565b60405180910390f35b6102f9610ec7565b6040516103069190611d94565b60405180910390f35b61032960048036038101906103249190611cf3565b610ecd565b005b61034560048036038101906103409190611fd2565b610fa0565b60405161035291906120a0565b60405180910390f35b610375600480360381019061037091906120bb565b610fc0565b005b610391600480360381019061038c91906120fb565b61123d565b005b6103ad60048036038101906103a89190611fd2565b6114cc565b6040516103ba9190611f59565b60405180910390f35b6103dd60048036038101906103d89190611cf3565b6114ec565b005b6103f960048036038101906103f49190611fd2565b6115bf565b005b6104156004803603810190610410919061213b565b6118e9565b6040516104229190611f59565b60405180910390f35b610433611918565b6040516104409190611d94565b60405180910390f35b610463600480360381019061045e9190611cf3565b61191e565b005b61047f600480360381019061047a9190611fd2565b6119f1565b005b61049b60048036038101906104969190611fd2565b611a74565b6040516104a89190611d94565b60405180910390f35b6104cb60048036038101906104c69190611cf3565b611a8c565b005b600660003373ffffffffffffffffffffffffffffffffffffffff1673ffffffffffffffffffffffffffffffffffffffff16815260200190815260200160002060009054906101000a900460ff16610559576040517f08c379a0000000000000000000000000000000000000000000000000000000008152600401610550906121d8565b60405180910390fd5b42600760003373ffffffffffffffffffffffffffffffffffffffff1673ffffffffffffffffffffffffffffffffffffffff1681526020019081526020016000205410156105db576040517f08c379a00000000000000000000000000000000000000000000000000000000081526004016105d290612244565b60405180910390fd5b6001600960003373ffffffffffffffffffffffffffffffffffffffff1673ffffffffffffffffffffffffffffffffffffffff168152602001908152602001600020600083815260200190815260200160002060006101000a81548160ff02191690831515021790555050565b6005602052816000526040600020818154811061066357600080fd5b90600052602060002001600091509150508060000154905081565b600660003373ffffffffffffffffffffffffffffffffffffffff1673ffffffffffffffffffffffffffffffffffffffff16815260200190815260200160002060009054906101000a900460ff1661070a576040517f08c379a0000000000000000000000000000000000000000000000000000000008152600401610701906121d8565b60405180910390fd5b42600760003373ffffffffffffffffffffffffffffffffffffffff1673ffffffffffffffffffffffffffffffffffffffff16815260200190815260200160002054101561078c576040517f08c379a000000000000000000000000000000000000000000000000000000000815260040161078390612244565b60405180910390fd5b600060018111156107a05761079f612029565b5b600860003373ffffffffffffffffffffffffffffffffffffffff1673ffffffffffffffffffffffffffffffffffffffff16815260200190815260200160002060009054906101000a900460ff1660018111156107ff576107fe612029565b5b1461083f576040517f08c379a0000000000000000000000000000000000000000000000000000000008152600401610836906122d6565b60405180910390fd5b60016108496108da565b11610889576040517f08c379a000000000000000000000000000000000000000000000000000000000815260040161088090612368565b60405180910390fd5b3373ffffffffffffffffffffffffffffffffffffffff167fd2ace4c86993ba3d326f45221eda4f369e6455ba8b21cb1e80806f2a144fccb7826040516108cf91906123f6565b60405180910390a250565b6000600560008060018111156108f3576108f2612029565b5b600181111561090557610904612029565b5b815260200190815260200160002080549050905090565b60006005600060018081111561093557610934612029565b5b600181111561094757610946612029565b5b815260200190815260200160002080549050905090565b60008060149054906101000a900460ff16905090565b60045481565b610982611b5f565b61098c6000611bdd565b565b60025481565b600660003373ffffffffffffffffffffffffffffffffffffffff1673ffffffffffffffffffffffffffffffffffffffff16815260200190815260200160002060009054906101000a900460ff16610a20576040517f08c379a0000000000000000000000000000000000000000000000000000000008152600401610a17906121d8565b60405180910390fd5b42600760003373ffffffffffffffffffffffffffffffffffffffff1673ffffffffffffffffffffffffffffffffffffffff168152602001908152602001600020541015610aa2576040517f08c379a0000000000000000000000000000000000000000000000000000000008152600401610a9990612244565b60405180910390fd5b600073ffffffffffffffffffffffffffffffffffffffff168173ffffffffffffffffffffffffffffffffffffffff1603610b11576040517f08c379a0000000000000000000000000000000000000000000000000000000008152600401610b0890612464565b60405180910390fd5b6003610b1b6108da565b10610b5b576040517f08c379a0000000000000000000000000000000000000000000000000000000008152600401610b52906124f6565b60405180910390fd5b60056000806001811115610b7257610b71612029565b5b6001811115610b8457610b83612029565b5b81526020019081526020016000206040518060200160405280600154600354610bad9190612545565b42610bb8919061259f565b815250908060018154018082558091505060019003906000526020600020016000909190919091506000820151816000015550506000600860008373ffffffffffffffffffffffffffffffffffffffff1673ffffffffffffffffffffffffffffffffffffffff16815260200190815260200160002060006101000a81548160ff02191690836001811115610c4f57610c4e612029565b5b02179055508073ffffffffffffffffffffffffffffffffffffffff16600073ffffffffffffffffffffffffffffffffffffffff167f62d19f43f1f8fb7dd335ffbf7190ed793c4701928314666fa6e14ba4b17cfd636000604051610cb391906120a0565b60405180910390a350565b3373ffffffffffffffffffffffffffffffffffffffff16610cdd610e9e565b73ffffffffffffffffffffffffffffffffffffffff161480610d485750600660003373ffffffffffffffffffffffffffffffffffffffff1673ffffffffffffffffffffffffffffffffffffffff16815260200190815260200160002060009054906101000a900460ff165b610d87576040517f08c379a0000000000000000000000000000000000000000000000000000000008152600401610d7e9061261f565b60405180910390fd5b600660008273ffffffffffffffffffffffffffffffffffffffff1673ffffffffffffffffffffffffffffffffffffffff16815260200190815260200160002060009054906101000a900460ff16610e13576040517f08c379a0000000000000000000000000000000000000000000000000000000008152600401610e0a9061268b565b60405180910390fd5b6000600760008373ffffffffffffffffffffffffffffffffffffffff1673ffffffffffffffffffffffffffffffffffffffff168152602001908152602001600020819055508073ffffffffffffffffffffffffffffffffffffffff167f49fa048463c11173dbc8b2ab8d09ebe6c38c168737d5a622b65b8086a01cbd0660405160405180910390a250565b60008060009054906101000a900473ffffffffffffffffffffffffffffffffffffffff16905090565b60035481565b3373ffffffffffffffffffffffffffffffffffffffff16610eec610e9e565b73ffffffffffffffffffffffffffffffffffffffff161480610f575750600660003373ffffffffffffffffffffffffffffffffffffffff1673ffffffffffffffffffffffffffffffffffffffff16815260200190815260200160002060009054906101000a900460ff165b610f96576040517f08c379a0000000000000000000000000000000000000000000000000000000008152600401610f8d9061261f565b60405180910390fd5b8060048190555050565b60086020528060005260406000206000915054906101000a900460ff1681565b600660003373ffffffffffffffffffffffffffffffffffffffff1673ffffffffffffffffffffffffffffffffffffffff16815260200190815260200160002060009054906101000a900460ff1661104c576040517f08c379a0000000000000000000000000000000000000000000000000000000008152600401611043906121d8565b60405180910390fd5b42600760003373ffffffffffffffffffffffffffffffffffffffff1673ffffffffffffffffffffffffffffffffffffffff1681526020019081526020016000205410156110ce576040517f08c379a00000000000000000000000000000000000000000000000000000000081526004016110c590612244565b60405180910390fd5b600073ffffffffffffffffffffffffffffffffffffffff168173ffffffffffffffffffffffffffffffffffffffff160361113d576040517f08c379a0000000000000000000000000000000000000000000000000000000008152600401611134906126f7565b60405180910390fd5b600060015460025461114f9190612545565b4261115a919061259f565b90506005600084600181111561117357611172612029565b5b600181111561118557611184612029565b5b8152602001908152602001600020604051806020016040528083815250908060018154018082558091505060019003906000526020600020016000909190919091506000820151816000015550508173ffffffffffffffffffffffffffffffffffffffff163373ffffffffffffffffffffffffffffffffffffffff167f62d19f43f1f8fb7dd335ffbf7190ed793c4701928314666fa6e14ba4b17cfd638560405161123091906120a0565b60405180910390a3505050565b3373ffffffffffffffffffffffffffffffffffffffff1661125c610e9e565b73ffffffffffffffffffffffffffffffffffffffff1614806112c75750600660003373ffffffffffffffffffffffffffffffffffffffff1673ffffffffffffffffffffffffffffffffffffffff16815260200190815260200160002060009054906101000a900460ff165b611306576040517f08c379a00000000000000000000000000000000000000000000000000000000081526004016112fd9061261f565b60405180910390fd5b600073ffffffffffffffffffffffffffffffffffffffff168273ffffffffffffffffffffffffffffffffffffffff1603611375576040517f08c379a000000000000000000000000000000000000000000000000000000000815260040161136c9061268b565b60405180910390fd5b6001600660008473ffffffffffffffffffffffffffffffffffffffff1673ffffffffffffffffffffffffffffffffffffffff16815260200190815260200160002060006101000a81548160ff021916908315150217905550600154426113db919061259f565b600760008473ffffffffffffffffffffffffffffffffffffffff1673ffffffffffffffffffffffffffffffffffffffff1681526020019081526020016000208190555080600860008473ffffffffffffffffffffffffffffffffffffffff1673ffffffffffffffffffffffffffffffffffffffff16815260200190815260200160002060006101000a81548160ff021916908360018111156114805761147f612029565b5b02179055508173ffffffffffffffffffffffffffffffffffffffff167f963903976154877b4fbff331c3ffa835a429d1b2738f2507ec87c07276b90d9860405160405180910390a25050565b60066020528060005260406000206000915054906101000a900460ff1681565b3373ffffffffffffffffffffffffffffffffffffffff1661150b610e9e565b73ffffffffffffffffffffffffffffffffffffffff1614806115765750600660003373ffffffffffffffffffffffffffffffffffffffff1673ffffffffffffffffffffffffffffffffffffffff16815260200190815260200160002060009054906101000a900460ff165b6115b5576040517f08c379a00000000000000000000000000000000000000000000000000000000081526004016115ac9061261f565b60405180910390fd5b8060028190555050565b600660003373ffffffffffffffffffffffffffffffffffffffff1673ffffffffffffffffffffffffffffffffffffffff16815260200190815260200160002060009054906101000a900460ff1661164b576040517f08c379a0000000000000000000000000000000000000000000000000000000008152600401611642906121d8565b60405180910390fd5b42600760003373ffffffffffffffffffffffffffffffffffffffff1673ffffffffffffffffffffffffffffffffffffffff1681526020019081526020016000205410156116cd576040517f08c379a00000000000000000000000000000000000000000000000000000000081526004016116c490612244565b60405180910390fd5b600073ffffffffffffffffffffffffffffffffffffffff168173ffffffffffffffffffffffffffffffffffffffff160361173c576040517f08c379a000000000000000000000000000000000000000000000000000000000815260040161173390612464565b60405180910390fd5b600161174661091c565b10611786576040517f08c379a000000000000000000000000000000000000000000000000000000000815260040161177d90612763565b60405180910390fd5b6005600060018081111561179d5761179c612029565b5b60018111156117af576117ae612029565b5b815260200190815260200160002060405180602001604052806001546004546117d89190612545565b426117e3919061259f565b815250908060018154018082558091505060019003906000526020600020016000909190919091506000820151816000015550506001600860008373ffffffffffffffffffffffffffffffffffffffff1673ffffffffffffffffffffffffffffffffffffffff16815260200190815260200160002060006101000a81548160ff0219169083600181111561187a57611879612029565b5b02179055508073ffffffffffffffffffffffffffffffffffffffff16600073ffffffffffffffffffffffffffffffffffffffff167f62d19f43f1f8fb7dd335ffbf7190ed793c4701928314666fa6e14ba4b17cfd6360016040516118de91906120a0565b60405180910390a350565b60096020528160005260406000206020528060005260406000206000915091509054906101000a900460ff1681565b60015481565b3373ffffffffffffffffffffffffffffffffffffffff1661193d610e9e565b73ffffffffffffffffffffffffffffffffffffffff1614806119a85750600660003373ffffffffffffffffffffffffffffffffffffffff1673ffffffffffffffffffffffffffffffffffffffff16815260200190815260200160002060009054906101000a900460ff165b6119e7576040517f08c379a00000000000000000000000000000000000000000000000000000000081526004016119de9061261f565b60405180910390fd5b8060038190555050565b6119f9611b5f565b600073ffffffffffffffffffffffffffffffffffffffff168173ffffffffffffffffffffffffffffffffffffffff1603611a68576040517f08c379a0000000000000000000000000000000000000000000000000000000008152600401611a5f906127f5565b60405180910390fd5b611a7181611bdd565b50565b60076020528060005260406000206000915090505481565b3373ffffffffffffffffffffffffffffffffffffffff16611aab610e9e565b73ffffffffffffffffffffffffffffffffffffffff161480611b165750600660003373ffffffffffffffffffffffffffffffffffffffff1673ffffffffffffffffffffffffffffffffffffffff16815260200190815260200160002060009054906101000a900460ff165b611b55576040517f08c379a0000000000000000000000000000000000000000000000000000000008152600401611b4c9061261f565b60405180910390fd5b8060018190555050565b611b67611ca1565b73ffffffffffffffffffffffffffffffffffffffff16611b85610e9e565b73ffffffffffffffffffffffffffffffffffffffff1614611bdb576040517f08c379a0000000000000000000000000000000000000000000000000000000008152600401611bd290612861565b60405180910390fd5b565b60008060009054906101000a900473ffffffffffffffffffffffffffffffffffffffff169050816000806101000a81548173ffffffffffffffffffffffffffffffffffffffff021916908373ffffffffffffffffffffffffffffffffffffffff1602179055508173ffffffffffffffffffffffffffffffffffffffff168173ffffffffffffffffffffffffffffffffffffffff167f8be0079c531659141344cd1fd0a4f28419497f9722a3daafe3b4186f6b6457e060405160405180910390a35050565b600033905090565b6000604051905090565b600080fd5b600080fd5b6000819050919050565b611cd081611cbd565b8114611cdb57600080fd5b50565b600081359050611ced81611cc7565b92915050565b600060208284031215611d0957611d08611cb3565b5b6000611d1784828501611cde565b91505092915050565b60028110611d2d57600080fd5b50565b600081359050611d3f81611d20565b92915050565b60008060408385031215611d5c57611d5b611cb3565b5b6000611d6a85828601611d30565b9250506020611d7b85828601611cde565b9150509250929050565b611d8e81611cbd565b82525050565b6000602082019050611da96000830184611d85565b92915050565b600080fd5b600080fd5b6000601f19601f8301169050919050565b7f4e487b7100000000000000000000000000000000000000000000000000000000600052604160045260246000fd5b611e0282611db9565b810181811067ffffffffffffffff82111715611e2157611e20611dca565b5b80604052505050565b6000611e34611ca9565b9050611e408282611df9565b919050565b600067ffffffffffffffff821115611e6057611e5f611dca565b5b611e6982611db9565b9050602081019050919050565b82818337600083830152505050565b6000611e98611e9384611e45565b611e2a565b905082815260208101848484011115611eb457611eb3611db4565b5b611ebf848285611e76565b509392505050565b600082601f830112611edc57611edb611daf565b5b8135611eec848260208601611e85565b91505092915050565b600060208284031215611f0b57611f0a611cb3565b5b600082013567ffffffffffffffff811115611f2957611f28611cb8565b5b611f3584828501611ec7565b91505092915050565b60008115159050919050565b611f5381611f3e565b82525050565b6000602082019050611f6e6000830184611f4a565b92915050565b600073ffffffffffffffffffffffffffffffffffffffff82169050919050565b6000611f9f82611f74565b9050919050565b611faf81611f94565b8114611fba57600080fd5b50565b600081359050611fcc81611fa6565b92915050565b600060208284031215611fe857611fe7611cb3565b5b6000611ff684828501611fbd565b91505092915050565b61200881611f94565b82525050565b60006020820190506120236000830184611fff565b92915050565b7f4e487b7100000000000000000000000000000000000000000000000000000000600052602160045260246000fd5b6002811061206957612068612029565b5b50565b600081905061207a82612058565b919050565b600061208a8261206c565b9050919050565b61209a8161207f565b82525050565b60006020820190506120b56000830184612091565b92915050565b600080604083850312156120d2576120d1611cb3565b5b60006120e085828601611d30565b92505060206120f185828601611fbd565b9150509250929050565b6000806040838503121561211257612111611cb3565b5b600061212085828601611fbd565b925050602061213185828601611d30565b9150509250929050565b6000806040838503121561215257612151611cb3565b5b600061216085828601611fbd565b925050602061217185828601611cde565b9150509250929050565b600082825260208201905092915050565b7f596f7520617265206e6f7420612076616c69642073657373696f6e206b657900600082015250565b60006121c2601f8361217b565b91506121cd8261218c565b602082019050919050565b600060208201905081810360008301526121f1816121b5565b9050919050565b7f53657373696f6e206b6579206861732065787069726564000000000000000000600082015250565b600061222e60178361217b565b9150612239826121f8565b602082019050919050565b6000602082019050818103600083015261225d81612221565b9050919050565b7f4f6e6c7920746563686e6963616c20636f6d6d6974746565206d656d6265727360008201527f2063616e2070726f706f7365206368616e676573000000000000000000000000602082015250565b60006122c060348361217b565b91506122cb82612264565b604082019050919050565b600060208201905081810360008301526122ef816122b3565b9050919050565b7f4174206c65617374203220746563686e6963616c20636f6d6d6974746565206d60008201527f656d626572732072657175697265640000000000000000000000000000000000602082015250565b6000612352602f8361217b565b915061235d826122f6565b604082019050919050565b6000602082019050818103600083015261238181612345565b9050919050565b600081519050919050565b60005b838110156123b1578082015181840152602081019050612396565b60008484015250505050565b60006123c882612388565b6123d2818561217b565b93506123e2818560208601612393565b6123eb81611db9565b840191505092915050565b6000602082019050818103600083015261241081846123bd565b905092915050565b7f496e76616c6964206d656d626572206164647265737300000000000000000000600082015250565b600061244e60168361217b565b915061245982612418565b602082019050919050565b6000602082019050818103600083015261247d81612441565b9050919050565b7f4d6178696d756d20746563686e6963616c206d656d626572732072656163686560008201527f6400000000000000000000000000000000000000000000000000000000000000602082015250565b60006124e060218361217b565b91506124eb82612484565b604082019050919050565b6000602082019050818103600083015261250f816124d3565b9050919050565b7f4e487b7100000000000000000000000000000000000000000000000000000000600052601160045260246000fd5b600061255082611cbd565b915061255b83611cbd565b9250817fffffffffffffffffffffffffffffffffffffffffffffffffffffffffffffffff048311821515161561259457612593612516565b5b828202905092915050565b60006125aa82611cbd565b91506125b583611cbd565b92508282019050808211156125cd576125cc612516565b5b92915050565b7f4e6f7420617574686f72697a6564000000000000000000000000000000000000600082015250565b6000612609600e8361217b565b9150612614826125d3565b602082019050919050565b60006020820190508181036000830152612638816125fc565b9050919050565b7f496e76616c69642073657373696f6e206b657920616464726573730000000000600082015250565b6000612675601b8361217b565b91506126808261263f565b602082019050919050565b600060208201905081810360008301526126a481612668565b9050919050565b7f496e76616c6964206e6577206d656d6265722061646472657373000000000000600082015250565b60006126e1601a8361217b565b91506126ec826126ab565b602082019050919050565b60006020820190508181036000830152612710816126d4565b9050919050565b7f4d6178696d756d207265736561726368206d656d626572732072656163686564600082015250565b600061274d60208361217b565b915061275882612717565b602082019050919050565b6000602082019050818103600083015261277c81612740565b9050919050565b7f4f776e61626c653a206e6577206f776e657220697320746865207a65726f206160008201527f6464726573730000000000000000000000000000000000000000000000000000602082015250565b60006127df60268361217b565b91506127ea82612783565b604082019050919050565b6000602082019050818103600083015261280e816127d2565b9050919050565b7f4f776e61626c653a2063616c6c6572206973206e6f7420746865206f776e6572600082015250565b600061284b60208361217b565b915061285682612815565b602082019050919050565b6000602082019050818103600083015261287a8161283e565b905091905056fea2646970667358221220cc23beb2a925be3bd79667b35b95cc4c97e867d6fc9c12f7b8590d4154b6b1a364736f6c63430008100033",
  "linkReferences": {},
  "deployedLinkReferences": {}
}